:020000040800F2
:10000000000002208D090008D9080008E108000856
:10001000E9080008F1080008F908000800000000DD
:1000200000000000000000000000000001090008BE
:100030000F090008000000001D0900082B09000836
:10004000DD090008DD090008DD090008DD090008F8
:10005000DD090008DD09000837090008DD0900088E
:10006000DD090008DD090008DD090008DD090008D8
:10007000DD090008DD090008DD090008DD090008C8
:10008000DD090008DD090008DD090008DD090008B8
:10009000DD090008DD090008DD090008DD090008A8
:1000A000DD090008DD090008DD090008DD09000898
:1000B000DD090008DD090008DD090008DD09000888
:1000C000DD090008DD090008DD090008DD09000878
:1000D000DD090008DD090008DD090008DD09000868
:1000E00045090008DD090008DD090008DD090008F0
:1000F000DD090008DD090008DD090008DD09000848
:10010000DD090008DD09000855090008DD090008BF
:10011000DD090008DD090008DD090008DD09000827
:10012000DD090008DD090008DD090008DD09000817
:10013000DD090008DD090008DD090008DD09000807
:10014000DD090008DD090008DD090008DD090008F7
:10015000DD090008DD090008DD090008DD090008E7
:10016000DD090008DD090008DD090008DD090008D7
:10017000DD090008DD090008DD09000800000000B5
:08018000DD090008DD0900089B
:1001880010B5054C237833B9044B13B10448AFF3C9
:1001980000800123237010BD0C0000200000000027
:1001A800602B000808B5034B1BB103490348AFF3A4
:1001B800008008BD0000000010000020602B00082F
:1001C80053B94AB9002908BF00281CBF4FF0FF31B6
:1001D8004FF0FF3000F06AB9ADF1080C6DE904CEBC
:1001E80000F006F8DDF804E0DDE9022304B070470A
:1001F8002DE9F047089D0C46002B4ED194468C45BE
:100208008646B2FA82F262D94AB1C2F1200391401D
:1002180020FA03F30CFA02FC194300FA02FE4FEA33
:100228001C471FFA8CF6B1FBF7F44FEA1E4307FB95
:10023800141143EA014304FB06F199420AD91CEB65
:10024800030304F1FF3080F01281994240F20F81DC
:10025800023C6344591A1FFA8EF3B1FBF7F007FB0F
:10026800101143EA014300FB06F69E420AD91CEB33
:10027800030300F1FF3180F0FC809E4240F2F980D8
:10028800634402389B1B40EA044000211DB1D3405F
:100298000022C5E90032BDE8F0878B4205D90DB1CF
:1002A800C5E9000100210846F5E7B3FA83F1002902
:1002B80046D1A34202D39042C0F0F080861A64EB84
:1002C80003030120002DE6D0C5E90063E3E7002A17
:1002D80040F09080A1EB0C044FEA1C481FFA8CF701
:1002E8000121B4FBF8F64FEA1E4308FB164443EA23
:1002F800044307FB06F0984208D91CEB030306F1F8
:10030800FF3402D2984200F2CD8026461C1A1FFA0A
:100318008EF3B4FBF8F008FB104443EA044300FBF7
:1003280007F79F4208D91CEB030300F1FF3402D200
:100338009F4200F2B0802046DB1B40EA0640A5E75A
:10034800C1F120068B4022FA06F71F4320FA06FC6B
:1003580004FA01F343EA0C03F44000FA01F8380CFC
:100368004FEA1349B4FBF0FE1FFA87FC00FB1E445A
:1003780049EA04440EFB0CF9A14502FA01F20AD934
:100388003C190EF1FF3A80F08480A14540F281804B
:10039800AEF1020E3C44A4EB09041FFA83F9B4FB46
:1003A800F0F300FB134449EA044403FB0CFCA445A6
:1003B80007D93C1903F1FF3067D2A44565D9023B40
:1003C8003C4443EA0E40A0FB0293A4EB0C049C427D
:1003D800CE469C4651D34ED055B1B8EB0E0364EBD4
:1003E8000C0404FA06F6CB401E43CC40C5E9006471
:1003F800002150E7C2F1200320FA03F10CFA02FCB5
:1004080024FA03F394400C434FEA1C4800FA02FE16
:100418001FFA8CF7B3FBF8F008FB1031230C43EA02
:10042800014300FB07F1994208D91CEB030300F1D3
:10043800FF362CD299422AD9023863445B1AA4B2F7
:10044800B3FBF8F108FB113344EA034401FB07F35B
:10045800A34208D91CEB040401F1FF3613D2A342CE
:1004680011D902396444E41A41EA004139E70446E3
:10047800F0E6084606E7C845AED2B9EB020E63EBD4
:10048800070C0138A8E73146EDE7034699E73046FF
:10049800D4E7D6467FE7634402384DE7064623464D
:1004A80008460FE7023E634430E700BF704700BFCD
:1004B80080B582B000AF78607B681B68044A9342BD
:1004C80001D102F051F900BF0837BD4680BD00BF19
:1004D800000C004080B582B000AF0346FB80FB886B
:1004E800B3F5804F05D101224FF40041074800F0D1
:1004F800CFFDFB88012B05D101224FF400410348B1
:1005080000F0C6FD00BF0837BD4680BD00080240A8
:1005180080B582B002AF00F05FFA00F039F800F061
:10052800EDF800F09FF8174801F058FA0346002B41
:1005380001D000F077F900230093002340221249EC
:10054800002001F093FE002002F0E2F9002002F002
:100558000FFA002002F07AFA002002F025FA0020B3
:1005680002F074FA002002F08DFA00224FF40041E4
:10057800064800F08DFD4CF25031002002F030FAB0
:1005880000BFFDE7280000200010024000080240DC
:1005980080B594B000AF07F120033022002118463F
:1005A80002F0A0FA07F10C0300221A605A609A6060
:1005B800DA601A610023BB60284B1B6C274A43F0A2
:1005C80080531364254B1B6C03F08053BB60BB68DE
:1005D80000237B60224B1B68214A43F4804313604D
:1005E8001F4B1B6803F480437B607B6802233B62DC
:1005F8000123FB6210233B630223BB630023FB63DD
:1006080008233B6448237B640223BB640423FB6404
:1006180007F12003184600F06DFD0346002B01D0BA
:1006280000F000F90F23FB6002233B6100237B618C
:100638004FF48053BB614FF48053FB6107F10C0307
:100648000221184600F0CEFF0346002B01D000F02F
:10065800E9F800BF5037BD4680BD00BF00380240F2
:100668000070004080B586B000AF07F10803002293
:100678001A605A609A60DA603B4600221A605A6033
:100688001C4B1D4A1A601B4B4A225A60194B002208
:100698009A60184B0922DA60164B00221A61154B32
:1006A80000229A61134801F049F90346002B01D052
:1006B80000F0B8F84FF48053BB6007F108031946FF
:1006C8000C4801F0EBFA0346002B01D000F0AAF821
:1006D80000233B6000237B603B461946054801F038
:1006E80013FD0346002B01D000F09CF800BF18371B
:1006F800BD4680BD28000020000C004080B588B0B1
:1007080000AF07F10C0300221A605A609A60DA60A1
:100718001A610023BB603F4B1B6B3E4A43F010033A
:1007280013633C4B1B6B03F01003BB60BB680023D7
:100738007B60384B1B6B374A43F004031363354B1C
:100748001B6B03F004037B607B6800233B60314B29
:100758001B6B304A43F0010313632E4B1B6B03F0F2
:1007680001033B603B68012240212B4800F090FCCC
:1007780000224FF40041294800F08AFC4023FB6026
:1007880001233B6101237B610223BB6107F10C0359
:100798001946214800F0C8FA4FF40043FB600123D2
:1007A8003B6100237B610023BB6107F10C03194601
:1007B8001A4800F0B9FA4FF48043FB604FF48813ED
:1007C8003B6101237B6107F10C031946144800F0D3
:1007D800ABFA0123FB604FF488133B6102237B6172
:1007E80007F10C0319460C4800F09EFA002200217C
:1007F800062000F062FA062000F07BFA00220021B1
:10080800282000F05AFA282000F073FA00BF203799
:10081800BD4680BD0038024000100240000802407A
:100828000000024080B400AF72B600BF00BFFDE711
:1008380080B483B000AF00237B60104B5B6C0F4A21
:1008480043F4804353640D4B5B6C03F480437B603B
:100858007B6800233B60094B1B6C084A43F08053BC
:100868001364064B1B6C03F080533B603B6800BF6E
:100878000C37BD465DF8047B704700BF0038024066
:1008880080B584B000AF78607B681B680E4A9342DD
:1008980015D10023FB600D4B1B6C0C4A43F0080379
:1008A80013640A4B1B6C03F00803FB60FB6800220F
:1008B8000021322000F001FA322000F01AFA00BFBD
:1008C8001037BD4680BD00BF000C00400038024014
:1008D80080B400AF00BFFDE780B400AF00BFFDE704
:1008E80080B400AF00BFFDE780B400AF00BFFDE7F4
:1008F80080B400AF00BFFDE780B400AF00BFBD46C5
:100908005DF8047B704780B400AF00BFBD465DF85A
:10091800047B704780B400AF00BFBD465DF8047B20
:10092800704780B500AF00F0A9F800BF80BD80B562
:1009380000AF012000F0C6FB00BF80BD80B500AF4E
:100948004FF4804000F0BEFB00BF80BD80B500AF13
:10095800024801F0B3F800BF80BD00BF28000020A6
:1009680080B400AF064BD3F88830054A43F47003CF
:10097800C2F8883000BFBD465DF8047B704700BFF1
:1009880000ED00E0DFF834D0FFF7EAFF0C480D492E
:100998000D4A002302E0D458C4500433C4188C42D2
:1009A800F9D30A4A0A4C002301E013600432A24238
:1009B800FBD302F09FF8FFF7ABFD70470000022061
:1009C800000000200C000020402C00080C00002033
:1009D800F8000020FEE7000080B500AF0E4B1B6852
:1009E8000D4A43F4007313600B4B1B680A4A43F427
:1009F80080631360084B1B68074A43F480731360D5
:100A0800032000F04FF90F2000F008F8FFF710FF5F
:100A18000023184680BD00BF003C024080B582B06C
:100A280000AF7860124B1A68124B1B7819464FF4C6
:100A38007A73B3FBF1F3B2FBF3F3184600F067F9EE
:100A48000346002B01D001230EE07B680F2B0AD848
:100A5800002279684FF0FF3000F02FF9064A7B68D2
:100A68001360002300E0012318460837BD4680BD07
:100A780000000020080000200400002080B400AF1F
:100A8800064B1B781A46064B1B681344044A13602E
:100A980000BFBD465DF8047B704700BF080000201A
:100AA8007000002080B400AF034B1B681846BD4699
:100AB8005DF8047B704700BF7000002080B584B0EB
:100AC80000AF7860FFF7EEFFB8607B68FB60FB68FB
:100AD800B3F1FF3F05D00A4B1B781A46FB68134455
:100AE800FB6000BFFFF7DEFF0246BB68D31AFA6857
:100AF8009A42F7D800BF00BF1037BD4680BD00BF7F
:100B08000800002080B485B000AF78607B6803F0EF
:100B18000703FB600C4BDB68BB60BA684FF6FF034A
:100B28001340BB60FB681A02BB68134343F0BF6302
:100B380043F40033BB60044ABB68D36000BF14377A
:100B4800BD465DF8047B704700ED00E080B400AF5F
:100B5800044BDB681B0A03F007031846BD465DF823
:100B6800047B704700ED00E080B483B000AF03461B
:100B7800FB7197F90730002B0BDBFB7903F01F02A1
:100B8800074997F907305B09012000FA02F241F89A
:100B9800232000BF0C37BD465DF8047B704700BFBB
:100BA80000E100E080B483B000AF03463960FB7118
:100BB80097F90730002B0ADB3B68DAB20C4997F942
:100BC80007301201D2B20B4483F800230AE03B68D5
:100BD800DAB20849FB7903F00F03043B1201D2B2E1
:100BE8000B441A7600BF0C37BD465DF8047B70478E
:100BF80000E100E000ED00E080B489B000AFF860EB
:100C0800B9607A60FB6803F00703FB61FB69C3F115
:100C18000703042B28BF0423BB61FB690433062B9D
:100C280002D9FB69033B00E000237B614FF0FF32F0
:100C3800BB6902FA03F3DA43BB681A407B699A403E
:100C48004FF0FF317B6901FA03F3D9437B680B400E
:100C5800134318462437BD465DF8047B70470000EF
:100C680080B582B000AF78607B68013BB3F1807FCC
:100C780001D301230FE00A4A7B68013B53600F212F
:100C88004FF0FF30FFF78EFF054B00229A60044BB0
:100C980007221A60002318460837BD4680BD00BFEA
:100CA80010E000E080B582B000AF78607868FFF7A8
:100CB80029FF00BF0837BD4680BD80B586B000AFAC
:100CC8000346B9607A60FB7300237B61FFF73EFF40
:100CD80078617A68B9687869FFF78EFF024697F9F4
:100CE8000F3011461846FFF75DFF00BF1837BD46A5
:100CF80080BD80B582B000AF0346FB7197F907301D
:100D08001846FFF731FF00BF0837BD4680BD80B5E4
:100D180082B000AF78607868FFF7A2FF03461846F4
:100D28000837BD4680BD000080B489B000AF786048
:100D3800396000237B6100233B610023BB610023F2
:100D4800FB616BE10122FB6902FA03F37B613B68FB
:100D58001B687A6913403B613A697B699A4240F0A3
:100D68005A813B685B6803F00303012B05D03B689D
:100D78005B6803F00303022B30D17B689B68BB617F
:100D8800FB695B00032202FA03F3DB43BA691340F1
:100D9800BB613B68DA68FB695B0002FA03F3BA6976
:100DA8001343BB617B68BA699A607B685B68BB6107
:100DB8000122FB6902FA03F3DB43BA691340BB6102
:100DC8003B685B681B0903F00102FB6902FA03F345
:100DD800BA691343BB617B68BA695A603B685B6850
:100DE80003F00303032B17D07B68DB68BB61FB6947
:100DF8005B00032202FA03F3DB43BA691340BB61C9
:100E08003B689A68FB695B0002FA03F3BA6913430B
:100E1800BB617B68BA69DA603B685B6803F003030F
:100E2800022B23D1FB69DA087B68083253F8223099
:100E3800BB61FB6903F007039B000F2202FA03F36F
:100E4800DB43BA691340BB613B681A69FB6903F06D
:100E580007039B0002FA03F3BA691343BB61FB69FA
:100E6800DA087B680832B96943F822107B681B6886
:100E7800BB61FB695B00032202FA03F3DB43BA6937
:100E88001340BB613B685B6803F00302FB695B00CE
:100E980002FA03F3BA691343BB617B68BA691A6043
:100EA8003B685B6803F44033002B00F0B4800023F8
:100EB800FB60604B5B6C5F4A43F4804353645D4B5B
:100EC8005B6C03F48043FB60FB685B4AFB699B082F
:100ED800023352F82330BB61FB6903F003039B0024
:100EE8000F2202FA03F3DB43BA691340BB617B6844
:100EF800524A93422BD07B68514A934225D07B6853
:100F0800504A93421FD07B684F4A934219D07B685E
:100F18004E4A934213D07B684D4A93420DD07B686A
:100F28004C4A934207D07B684B4A934201D107232E
:100F38000EE008230CE006230AE0052308E004235A
:100F480006E0032304E0022302E0012300E000237B
:100F5800FA6902F0030292009340BA691343BB6135
:100F68003549FB699B080233BA6941F823203B4B9A
:100F78009B68BB613B69DB43BA691340BB613B6853
:100F88005B6803F48013002B03D0BA693B691343F1
:100F9800BB61324ABB699360304BDB68BB613B691C
:100FA800DB43BA691340BB613B685B6803F4001319
:100FB800002B03D0BA693B691343BB61274ABB695D
:100FC800D360264B5B68BB613B69DB43BA6913405E
:100FD800BB613B685B6803F40033002B03D0BA693C
:100FE8003B691343BB611D4ABB6953601B4B1B68BC
:100FF800BB613B69DB43BA691340BB613B685B6813
:1010080003F48033002B03D0BA693B691343BB61F7
:10101800124ABB691360FB690133FB61FB690F2B43
:101028007FF690AE00BF00BF2437BD465DF8047B55
:10103800704700BF003802400038014000000240FD
:101048000004024000080240000C02400010024068
:101058000014024000180240001C0240003C0140FD
:1010680080B485B000AF78600B467B807B681A69D6
:101078007B881340002B02D00123FB7301E000237F
:10108800FB73FB7B18461437BD465DF8047B70473D
:1010980080B483B000AF78600B467B8013467B70CA
:1010A8007B78002B03D07A887B689A6103E07B8881
:1010B8001A047B689A6100BF0C37BD465DF8047B53
:1010C8007047000080B582B000AF0346FB80084B34
:1010D8005A69FB881340002B06D0054AFB885361E8
:1010E800FB881846FFF7F6F900BF0837BD4680BDF4
:1010F800003C014080B586B000AF78607B68002B6B
:1011080001D1012367E27B681B6803F00103002B10
:1011180075D0884B9B6803F00C03042B0CD0854BCF
:101128009B6803F00C03082B12D1824B5B6803F415
:101138008003B3F5800F0BD17E4B1B6803F400339B
:10114800002B5BD07B685B68002B57D1012342E200
:101158007B685B68B3F5803F06D1764B1B68754AA0
:1011680043F4803313601DE07B685B68B3F5A02F00
:101178000CD1704B1B686F4A43F4802313606D4B8E
:101188001B686C4A43F4803313600BE0694B1B689F
:10119800684A23F480331360664B1B68654A23F45E
:1011A800802313607B685B68002B13D0FFF77AFC01
:1011B800386108E0FFF776FC02463B69D31A642BD6
:1011C80001D9032307E25B4B1B6803F40033002BB0
:1011D800F0D014E0FFF766FC386108E0FFF762FC26
:1011E80002463B69D31A642B01D90323F3E1514B1F
:1011F8001B6803F40033002BF0D100E000BF7B68CC
:101208001B6803F00203002B63D04A4B9B6803F072
:101218000C03002B0BD0474B9B6803F00C03082BE7
:101228001CD1444B5B6803F48003002B16D1414B5F
:101238001B6803F00203002B05D07B68DB68012BD9
:1012480001D00123C7E13B4B1B6823F0F8027B6800
:101258001B69DB00374913430B603AE07B68DB68A6
:10126800002B20D0344B01221A60FFF71BFC386199
:1012780008E0FFF717FC02463B69D31A022B01D995
:101288000323A8E12B4B1B6803F00203002BF0D0CB
:10129800284B1B6823F0F8027B681B69DB00254993
:1012A80013430B6015E0244B00221A60FFF7FAFB8A
:1012B800386108E0FFF7F6FB02463B69D31A022BB8
:1012C80001D9032387E11B4B1B6803F00203002BA2
:1012D800F0D17B681B6803F00803002B36D07B68CD
:1012E8005B69002B16D0154B01221A60FFF7DAFB59
:1012F800386108E0FFF7D6FB02463B69D31A022B98
:1013080001D9032367E10B4B5B6F03F00203002B4A
:10131800F0D01BE0094B00221A60FFF7C3FB3861CD
:101328000EE0FFF7BFFB02463B69D31A022B07D931
:10133800032350E10038024000004742800E474234
:10134800884B5B6F03F00203002BEAD17B681B68B4
:1013580003F00403002B00F097800023FB75814BFA
:101368001B6C03F08053002B0FD10023BB607D4B17
:101378001B6C7C4A43F0805313647A4B1B6C03F05C
:101388008053BB60BB680123FB75774B1B6803F474
:101398008073002B18D1744B1B68734A43F4807315
:1013A8001360FFF77FFB386108E0FFF77BFB02461D
:1013B8003B69D31A022B01D903230CE16A4B1B6842
:1013C80003F48073002BF0D07B689B68012B06D157
:1013D800644B1B6F634A43F0010313671CE07B688F
:1013E8009B68052B0CD15F4B1B6F5E4A43F00403CF
:1013F80013675C4B1B6F5B4A43F0010313670BE0F9
:10140800584B1B6F574A23F001031367554B1B6F4B
:10141800544A23F0040313677B689B68002B15D09C
:10142800FFF740FB38610AE0FFF73CFB02463B69E7
:10143800D31A41F28832934201D90323CBE0494BB6
:101448001B6F03F00203002BEED014E0FFF72AFB1A
:1014580038610AE0FFF726FB02463B69D31A41F2DE
:101468008832934201D90323B5E03E4B1B6F03F04A
:101478000203002BEED1FB7D012B05D1394B1B6CF0
:10148800384A23F0805313647B689B69002B00F073
:10149800A180344B9B6803F00C03082B5CD07B685D
:1014A8009B69022B41D1314B00221A60FFF7FAFAEF
:1014B800386108E0FFF7F6FA02463B69D31A022BB7
:1014C80001D9032387E0274B1B6803F00073002B27
:1014D800F0D17B68DA697B681B6A1A437B685B6AB0
:1014E8009B011A437B689B6A5B08013B1B041A43F8
:1014F8007B68DB6A1B061B4913434B601B4B0122AD
:101508001A60FFF7CFFA386108E0FFF7CBFA024616
:101518003B69D31A022B01D903235CE0114B1B68EA
:1015280003F00073002BF0D054E0104B00221A6037
:10153800FFF7B8FA386108E0FFF7B4FA02463B69EA
:10154800D31A022B01D9032345E0064B1B6803F08D
:101558000073002BF0D13DE07B689B69012B07D11C
:10156800012338E000380240007000406000474224
:101578001B4B5B68FB607B689B69012B28D0FB6871
:1015880003F480027B68DB699A4221D1FB6803F08F
:101598003F027B681B6A9A421AD1FA6847F6C07301
:1015A80013407A68526A9201934211D1FB6803F49E
:1015B80040327B689B6A5B08013B1B049A4207D157
:1015C800FB6803F070627B68DB6A1B069A4201D0F5
:1015D800012300E0002318461837BD4680BD00BF30
:1015E8000038024080B584B000AF786039607B680D
:1015F800002B01D10123CCE0684B1B6803F00703E3
:101608003A689A420CD9654B3A68D2B21A70634B61
:101618001B6803F007033A689A4201D00123B8E037
:101628007B681B6803F00203002B20D07B681B68D3
:1016380003F00403002B05D0594B9B68584A43F428
:10164800E05393607B681B6803F00803002B05D008
:10165800534B9B68524A43F460439360504B9B68DA
:1016680023F0F0027B689B684D4913438B607B68CD
:101678001B6803F00103002B44D07B685B68012BD7
:1016880007D1474B1B6803F40033002B19D1012302
:101698007FE07B685B68022B03D07B685B68032B69
:1016A80007D13F4B1B6803F00073002B09D10123BE
:1016B8006FE03B4B1B6803F00203002B01D10123B1
:1016C80067E0374B9B6823F003027B685B6834490B
:1016D80013438B60FFF7E6F9F8600AE0FFF7E2F9D9
:1016E8000246FB68D31A41F28832934201D9032398
:1016F8004FE02B4B9B6803F00C027B685B689B00F8
:101708009A42EBD1254B1B6803F007033A689A42CB
:101718000CD2224B3A68D2B21A70204B1B6803F0E5
:1017280007033A689A4201D0012332E07B681B68BC
:1017380003F00403002B08D0194B9B6823F4E052F4
:101748007B68DB68164913438B607B681B6803F072
:101758000803002B09D0124B9B6823F460427B6876
:101768001B69DB000E4913438B6000F021F8024629
:101778000B4B9B681B0903F00F030A49CB5C22FA49
:1017880003F3094A1360094B1B681846FFF746F92B
:10179800002318461037BD4680BD00BF003C0240FC
:1017A80000380240202C000800000020040000201F
:1017B8002DE9B04F90B000AF00237B630023FB639B
:1017C80000233B630023BB63594B9B6803F00C0366
:1017D800082B0DD0082B00F2A180002B02D0042B7F
:1017E80003D09BE0534BBB639BE0534BBB6398E038
:1017F8004F4B5B6803F03F037B634D4B5B6803F41F
:101808008003002B28D04A4B5B689B0900223B626F
:101818007A623B6AC3F308000021474B03FB01F2DD
:10182800002300FB03F31344434AA0FB0212FA62AD
:101838000A46BA62FA6A1344FB627B6B0022BB61F8
:10184800FA61D7E90623D7E90A01FEF7B9FC02468F
:101858000B461346FB6353E0354B5B689B0900223C
:101868003B617A613B69C3F3080A4FF0000B5246AB
:101878005B464FF000004FF00001590141EAD26188
:10188800500102460B46B2EB0A0863EB0B094FF016
:1018980000024FF000034FEA891343EA98634FEAC6
:1018A8008812B2EB080463EB09054FF000024FF011
:1018B8000003EB0043EA5473E20014461D4614EBA0
:1018C8000A033B6045EB0B037B604FF000024FF0CF
:1018D8000003D7E9004529468B02214643EA915384
:1018E80021468A02104619467B6B0022BB60FA60CB
:1018F800D7E90223FEF764FC02460B461346FB6356
:101908000B4B5B681B0C03F0030301335B003B6369
:10191800FA6B3B6BB2FBF3F3BB6302E0054BBB63B3
:1019280000BFBB6B18464037BD46BDE8B08F00BF4F
:10193800003802400024F40040787D0180B582B070
:1019480000AF78607B68002B01D1012341E07B6800
:1019580093F83D30DBB2002B06D17B68002283F878
:101968003C207868FEF78CFF7B68022283F83D20D4
:101978007B681A687B6804331946104600F07EFAC3
:101988007B68012283F846207B68012283F83E2089
:101998007B68012283F83F207B68012283F840207E
:1019A8007B68012283F841207B68012283F842206A
:1019B8007B68012283F843207B68012283F8442056
:1019C8007B68012283F845207B68012283F83D204B
:1019D800002318460837BD4680BD000080B485B096
:1019E80000AF78607B6893F83D30DBB2012B01D003
:1019F80001234EE07B68022283F83D207B681B6848
:101A0800DA687B681B6842F00102DA607B681B6851
:101A1800234A934222D07B681B68B3F1804F1DD0C4
:101A28007B681B681F4A934218D07B681B681E4A54
:101A3800934213D07B681B681C4A93420ED07B6884
:101A48001B681B4A934209D07B681B68194A93425A
:101A580004D07B681B68184A934211D17B681B68C5
:101A68009B6803F00703FB60FB68062B10D07B68BC
:101A78001B681A687B681B6842F001021A6007E05D
:101A88007B681B681A687B681B6842F001021A6051
:101A9800002318461437BD465DF8047B704700BF25
:101AA800000001400004004000080040000C004015
:101AB80000040140004001400018004080B584B097
:101AC80000AF78607B681B68DB68FB607B681B681D
:101AD8001B69BB60BB6803F00203002B20D0FB68C6
:101AE80003F00203002B1BD07B681B686FF0020217
:101AF8001A617B6801221A777B681B689B6903F06F
:101B08000303002B03D0786800F099F905E07868A2
:101B180000F08BF9786800F09CF97B6800221A774E
:101B2800BB6803F00403002B20D0FB6803F0040318
:101B3800002B1BD07B681B686FF004021A617B685E
:101B480002221A777B681B689B6903F44073002B99
:101B580003D0786800F073F905E0786800F065F95B
:101B6800786800F076F97B6800221A77BB6803F082
:101B78000803002B20D0FB6803F00803002B1BD0C0
:101B88007B681B686FF008021A617B6804221A7769
:101B98007B681B68DB6903F00303002B03D07868BC
:101BA80000F04DF905E0786800F03FF9786800F03A
:101BB80050F97B6800221A77BB6803F01003002BEA
:101BC80020D0FB6803F01003002B1BD07B681B6838
:101BD8006FF010021A617B6808221A777B681B680D
:101BE800DB6903F44073002B03D0786800F027F911
:101BF80005E0786800F019F9786800F02AF97B6840
:101C080000221A77BB6803F00103002B0CD0FB6895
:101C180003F00103002B07D07B681B686FF00102FB
:101C28001A617868FEF744FCBB6803F08003002B58
:101C38000CD0FB6803F08003002B07D07B681B687F
:101C48006FF080021A61786800F0E4FABB6803F06C
:101C58004003002B0CD0FB6803F04003002B07D097
:101C68007B681B686FF040021A61786800F0FBF827
:101C7800BB6803F02003002B0CD0FB6803F02003A3
:101C8800002B07D07B681B686FF020021A61786808
:101C980000F0B6FA00BF1037BD4680BD80B584B0ED
:101CA80000AF786039600023FB737B6893F83C30A1
:101CB800012B01D10223B4E07B68012283F83C2088
:101CC8007B68022283F83D207B681B689B68BB60A9
:101CD800BB6823F07703BB60BB6823F47F43BB601A
:101CE8007B681B68BA689A603B681B68B3F5005F3D
:101CF8003ED0B3F5005F00F28780B3F5805F00F057
:101D08008680B3F5805F7FD8702B1AD0702B7BD874
:101D1800602B50D0602B77D8502B3CD0502B73D8E9
:101D2800402B58D0402B6FD8302B64D0302B6BD839
:101D3800202B60D0202B67D8002B5CD0102B5AD0DA
:101D480062E07B6818683B6899683B685A683B683A
:101D5800DB6800F0B9F97B681B689B68BB60BB68EF
:101D680043F07703BB607B681B68BA689A604FE0F2
:101D78007B6818683B6899683B685A683B68DB6809
:101D880000F0A2F97B681B689A687B681B6842F4BC
:101D980080429A603CE07B6818683B6859683B68F9
:101DA800DB681A4600F016F97B681B685021184654
:101DB80000F06FF92CE07B6818683B6859683B684D
:101DC800DB681A4600F035F97B681B686021184605
:101DD80000F05FF91CE07B6818683B6859683B684D
:101DE800DB681A4600F0F6F87B681B684021184645
:101DF80000F04FF90CE07B681A683B681B681946CD
:101E0800104600F046F903E00123FB7300E000BF31
:101E18007B68012283F83D207B68002283F83C2000
:101E2800FB7B18461037BD4680BD80B483B000AF39
:101E3800786000BF0C37BD465DF8047B704780B4FE
:101E480083B000AF786000BF0C37BD465DF8047BF7
:101E5800704780B483B000AF786000BF0C37BD46D0
:101E68005DF8047B704780B483B000AF786000BF32
:101E78000C37BD465DF8047B7047000080B485B020
:101E880000AF786039607B681B68FB607B68464AF6
:101E9800934213D07B68B3F1804F0FD07B68434ADD
:101EA80093420BD07B68424A934207D07B68414AF1
:101EB800934203D07B68404A934208D1FB6823F0E1
:101EC8007003FB603B685B68FA681343FB607B68E0
:101ED800354A93422BD07B68B3F1804F27D07B687B
:101EE800324A934223D07B68314A93421FD07B68A1
:101EF800304A93421BD07B682F4A934217D07B68A5
:101F08002E4A934213D07B682D4A93420FD07B68A8
:101F18002C4A93420BD07B682B4A934207D07B68AC
:101F28002A4A934203D07B68294A934208D1FB6826
:101F380023F44073FB603B68DB68FA681343FB607B
:101F4800FB6823F080023B685B691343FB607B6896
:101F5800FA681A603B689A687B68DA623B681A68B4
:101F68007B689A627B68104A934203D07B68124A66
:101F7800934203D13B681A697B681A637B68012224
:101F88005A617B681B6903F00103012B05D17B684B
:101F98001B6923F001027B681A6100BF1437BD4634
:101FA8005DF8047B704700BF00000140000400405A
:101FB80000080040000C00400004014000400140BF
:101FC800004401400048014000180040001C004047
:101FD8000020004080B487B000AFF860B9607A6034
:101FE800FB681B6A7B61FB681B6A23F00102FB68C4
:101FF8001A62FB689B693B613B6923F0F0033B6114
:102008007B681B013A6913433B617B6923F00A0330
:102018007B617A69BB6813437B61FB683A699A61A3
:10202800FB687A691A6200BF1C37BD465DF8047BFD
:10203800704780B487B000AFF860B9607A60FB6819
:102048001B6A7B61FB681B6A23F01002FB681A623B
:10205800FB689B693B613B6923F470433B617B6888
:102068001B033A6913433B617B6923F0A0037B613F
:10207800BB681B017A6913437B61FB683A699A6103
:10208800FB687A691A6200BF1C37BD465DF8047B9D
:10209800704780B485B000AF786039607B689B6812
:1020A800FB60FB6823F07003FB603A68FB6813432E
:1020B80043F00703FB607B68FA689A6000BF143737
:1020C800BD465DF8047B704780B487B000AFF86008
:1020D800B9607A603B60FB689B687B617B6923F42D
:1020E8007F437B613B681A027B681A43BB681343D2
:1020F8007A6913437B61FB687A699A6000BF1C3771
:10210800BD465DF8047B704780B485B000AF786049
:1021180039607B6893F83C30012B01D102235AE0E7
:102128007B68012283F83C207B68022283F83D20EB
:102138007B681B685B68FB607B681B689B68BB608F
:10214800FB6823F07003FB603B681B68FA68134365
:10215800FB607B681B68FA685A607B681B68214AC9
:10216800934222D07B681B68B3F1804F1DD07B68F7
:102178001B681D4A934218D07B681B681B4A934210
:1021880013D07B681B681A4A93420ED07B681B6881
:10219800184A934209D07B681B68174A934204D0B7
:1021A8007B681B68154A93420CD1BB6823F08003F7
:1021B800BB603B685B68BA681343BB607B681B689D
:1021C800BA689A607B68012283F83D207B68002208
:1021D80083F83C20002318461437BD465DF8047B7D
:1021E800704700BF000001400004004000080040A4
:1021F800000C00400004014000400140001800406D
:1022080080B483B000AF786000BF0C37BD465DF87E
:10221800047B704780B483B000AF786000BF0C3790
:10222800BD465DF8047B704780B582B000AF78602A
:102238000B467B807B8819467868FEF711FF0346BA
:1022480018460837BD4680BD80B582B000AF7860BB
:102258000B467B8013467B707A787B8819467868B2
:10226800FEF716FF00BF0837BD4680BD80B485B0B5
:1022780000AFB9607B600346FB731346BB81FB7BF1
:10228800002B01D001237CE0FB7B414A5B01134416
:1022980000221A70FB7B3E4A5B011344063300227E
:1022A8001A70FB7B3A4A5B011344053300221A700B
:1022B800FB7B374A5B011344093300221A70FB7B0E
:1022C800334A5B011344013300221A70FB7B304A06
:1022D8005B011344023300221A70FB7B2C4A5B011A
:1022E8001344043300221A70FB7B294A5B01134410
:1022F800033300221A70FB7B254A5B011344073322
:1023080000221A70FB7B224A5B0113440833002227
:102318001A70FA7BF97B13465B0013445B011D4A74
:102328001A441B484B0103440C331A60FB7B184AC0
:102338005B01134418337A681A60FB7B144A5B010B
:1023480013441C333A8B1A80FB7B114A5B011344FC
:102358001033BA681A60FB7B0D4A5B0113441433CF
:10236800BA891A80FB7B0A4A5B0113441E33002298
:102378001A70FB7B064A5B0113441F3300221A7054
:10238800002318461437BD465DF8047B704700BF2C
:10239800740000209400002080B582B000AF7860FF
:1023A8000B46FB707B6818697B689B8AFA7819462C
:1023B800FFF74AFF00BF0837BD4680BD80B582B031
:1023C80000AF78607B685B78002B00F090807B68BA
:1023D8001B79002B13D17B6801221A707B680022BD
:1023E800DA7000217868FFF7D7FF7B681B79013323
:1023F800DAB27B681A71404B00221A7077E07B686A
:102408001B79082B2CD87B68DB687A68D2799B5CAF
:102418001A467B68DB7842FA03F3DBB203F0010368
:10242800DAB2364B1A70354B1B7819467868FFF7C5
:10243800B3FF7B681B790133DAB27B681A717B685A
:10244800DB780133DAB27B68DA702C4B1B78002B0F
:102458004DD0294B1B780133DAB2274B1A7046E06E
:102468007B681B79082B13D8234B1B7803F00103D7
:10247800DAB2224B1A70214B1B7819467868FFF79D
:102488008BFF7B681B790133DAB27B681A712EE007
:102498007B681B79092B0AD801217868FFF77CFF34
:1024A8007B681B790133DAB27B681A711FE07B689D
:1024B8001B790A2B1BD17B6800221A717B68DB7998
:1024C8000133DAB27B68DA717B681A7A7B68DB7968
:1024D8009A4206D97B6801221A707B6801225A70D9
:1024E80005E07B6800221A707B6800225A7000BFE2
:1024F8000837BD4680BD00BFF6000020F50000206B
:1025080080B483B000AF78600B46FB707B689B7823
:10251800002B67D07B689B79002B14D1FB78002BAC
:102528005FD17B6800225A717B689B790133DAB2EC
:102538007B689A717B68DB687A68527A1344002258
:1025480083F820204EE07B689B79082B26D87B688F
:10255800DB687A68527A134493F820305AB2FB78D1
:1025680003F00103796849798B405BB2134358B291
:102578007B68DB687A68527A1146C2B20B4483F8EA
:1025880020207B689B790133DAB27B689A717B687B
:102598005B790133DAB27B685A7123E07B689B79F7
:1025A800082B06D87B689B790133DAB27B689A716D
:1025B80018E07B689B79092B14D87B6800229A71F4
:1025C8007B6800229A77FB78002B0BD07B685B7ABC
:1025D8003E2B07D87B685B7A0133DAB27B685A7284
:1025E80000E000BF0C37BD465DF8047B7047000073
:1025F80080B485B000AF03463960FB711346BB71E8
:10260800FB79002B01D001233DE0FB79214A5B01D6
:1026180013441B78DBB2002B01D0012333E0FB7994
:102628001C4A5B011344073300221A70FB79194ACC
:102638005B0113440833BA791A700023FB6010E079
:10264800FB683A681344FA79124952010A440C3279
:1026580012681978FB6813440A461A70FB6801333C
:10266800FB60BB79FA689A42EADBFB79094A5B01AD
:10267800134401221A70FB79064A5B0113440133A3
:1026880001221A70002318461437BD465DF8047BF2
:10269800704700BF7400002080B582B000AF0023EF
:1026A800FB7000237B6050E02C4A7B685B0113447D
:1026B80018331A6829497B685B010B441C331B8853
:1026C80019461046FFF7B0FD0346BB70234A7B68E6
:1026D8005B01134406331B78002B27D11F4A7B6804
:1026E8005B0113441E331B78002B1FD1BB78002BD2
:1026F8001CD11B4B1B78DBB29A1C1A4B83FB0213B1
:102708005910D317C91A0B469B000B44D11AC9B2EA
:10271800124A7B685B0113441F330A461A700F4A3A
:102728007B685B0113441E3301221A70BB7803F0E7
:1027380001027B6802FA03F35AB297F90330134394
:102748005BB2FB707B6801337B607B68002BABDD81
:10275800FB7818460837BD4680BD00BF74000020CE
:10276800F40000206766666680B582B000AFFFF7A8
:1027780093FF0346FB7000237B601CE0234A7B68C1
:102788005B0113441F331A78214B1B78DBB29A4242
:102798000ED17B685B011D4A9818FA787B6842FA6B
:1027A80003F3DBB203F00103DBB21946FFF7A8FE1F
:1027B8007B6801337B607B68002BDFDD144B1B7863
:1027C800DBB2002B0FD100237B6009E07B685B0143
:1027D8000E4A13441846FFF7F1FD7B6801337B600E
:1027E8007B68002BF2DD0A4B1B78DBB20133DAB2CF
:1027F800074B1A70064B1B78DBB2042B02D9044B2B
:1028080000221A7000BF0837BD4680BD7400002042
:10281800F40000202DE9F04387B000AF0346B9600B
:102828007A60FB736B461E4679680B46013B7B61F9
:102838000023884699464FF000024FF000034FEA04
:10284800C90343EA58734FEAC80200230C461D46E1
:102858004FF000024FF00003EB0043EA5473E2002C
:10286800CB1DDB08DB00ADEB030D6B4600333B6192
:102878007A68B968386900F061F97B68DAB2FB7B7D
:1028880039691846FFF7B4FEB54600BF1C37BD4688
:10289800BDE8F08380B487B000AF7860396000236A
:1028A800FB7500233B6127E07A683B6913441B787A
:1028B800FB730023BB6019E0FB7DDB09DBB21A4622
:1028C800FB7B03F001039A4207D0FB7D5B005BB200
:1028D80083F007035BB2FB7502E0FB7D5B00FB75D1
:1028E800FB7B5B08FB73BB680133BB60BB68072BD2
:1028F800E2DD3B6901333B613B68013B3A699A423F
:10290800D2D3FB7D18461C37BD465DF8047B704763
:1029180080B5A4B000AF0346FB71144A07F10C035D
:1029280011468022184600F009F90023C7F88C30B8
:1029380012E007F10C02D7F88C30DB00D118FB79D4
:1029480008221846FFF766FF0A20FEF7B7F8D7F8FF
:102958008C300133C7F88C30D7F88C300F2BE8D97E
:1029680000BF00BF9037BD4680BD00BF782B000870
:1029780080B584B000AF0346FB710A4A07F108032B
:1029880092E8030083E8030007F10801FB790822B5
:102998001846FFF73FFF0A20FEF790F800BF1037F0
:1029A800BD4680BDF82B000880B584B000AF034653
:1029B800FB710A4A07F1080392E8030083E8030061
:1029C80007F10801FB7908221846FFF723FF0A20C0
:1029D800FEF774F800BF1037BD4680BD002C000814
:1029E80080B586B000AF03463960FB71164A07F11F
:1029F8000C0392E8030083E803003B681B0EDBB27C
:102A0800FB733B681B0CDBB23B743B681B0ADBB2F5
:102A18007B743B68DBB2BB7407F10C0308211846D2
:102A2800FFF738FF0346FB75FB7DFB7407F10C01CC
:102A3800FB7908221846FFF7EDFE0A20FEF73EF85C
:102A480000BF1837BD4680BD082C000880B584B08B
:102A580000AF0346FB710A4A07F1080392E8030036
:102A680083E8030007F10801FB7908221846FFF7FD
:102A7800D1FE0A20FEF722F800BF1037BD4680BD00
:102A8800002C000880B586B000AF0346FB71134ADE
:102A980007F1100392E8030083E8030007F110012F
:102AA800FB7908221846FFF7B5FE0A20FEF706F85C
:102AB8000B4A07F1080392E8030083E8030007F1D3
:102AC8000801FB7908221846FFF7A4FE0A20FDF743
:102AD800F5FF00BF1837BD4680BD00BF102C0008A9
:102AE800182C000802440346934200D1704703F8AB
:102AF800011BF9E770B50D4D0D4C641BA4100026A1
:102B0800A64209D10B4D0C4C00F026F8641BA4100A
:102B18000026A64205D170BD55F8043B98470136FA
:102B2800EEE755F8043B98470136F2E7382C0008E1
:102B3800382C0008382C00083C2C00080A44914224
:102B480000F1FF3300D1704710B511F8014B03F8BD
:102B5800014F9142F9D110BDF8B500BFF8BC08BCCF
:102B68009E467047F8B500BFF8BC08BC9E46704743
:102B7800050080000001C0F605009000011F10DF6D
:102B88000500EC10010053970500F0C10D00240664
:102B98000500C20000000045050091000000141F58
:102BA800050093000000000F0500A2000000000EC1
:102BB80005009400000000340500C0000000008DEE
:102BC8000500C20000000045050081000000021950
:102BD800050090000100005B0500EC10010050D9D1
:102BE8000500F0C1090024450500F0C1010024E7F3
:102BF80005009000011F00E70500EC100100539745
:102C08000500A200000000000500940000FFFF106E
:102C18000500C00000100083000000000000000054
:082C280001020304060708097C
:082C3000C8D5FF7F0100000080
:042C3800AD010008E2
:042C3C008901000802
:0C2C40000024F40010000000010000005F
:040000050800098D59
:00000001FF
